:020000040000FA
:100000000C9462000C948A000C948A000C948A0070
:100010000C948A000C948A000C948A000C948A0038
:100020000C94B6050C948A000C948A000C948A00F7
:100030000C948A000C948A000C948A000C948A0018
:100040000C9414050C948A000C9484050C945E05A1
:100050000C948A000C948A000C948A000C948A00F8
:100060000C948A000C948A000000000024002700F1
:100070002A0000000000250028002B0000000008D6
:10008000000201000003040700000000000000005F
:1000900000000000230026002900040404040404D6
:1000A0000404020202020202030303030303010227
:1000B00004081020408001020408102001020408F6
:1000C0001020C60611241FBECFEFD8E0DEBFCDBF83
:1000D00024E0A4E7B2E001C01D92A733B207E1F724
:1000E00012E0A0E0B1E0E8ECFFE102C005900D9263
:1000F000A437B107D9F710E0C2E6D0E004C02197D9
:10010000FE010E94DC0FC136D107C9F70E94050726
:100110000C94E20F0C9400002091280430912904E3
:100120002817390728F480912604816080932604DB
:1001300008950F931F93CF93DF9340918202809194
:10014000270410E0481708F063C0142F11700091C5
:10015000810201114EC0E0912A04F0912B04E40FBA
:10016000F11DE585F0E02CEE3FEF112311F024E1C5
:1001700030E0C0917F02D09180022C0F3D1FC90159
:1001800063E470E00E94C80FE617F70760F0C9014A
:1001900068E270E00E94C80F6F5F7F4F81E090E0DF
:1001A0006E177F0710F52C0F3D1FC90163E470E047
:1001B0000E94C80FE617F70750F0C90168E270E027
:1001C0000E94C80F6F5F7F4F6E177F0760F42C0F80
:1001D0003D1FC90163E470E00E94C80FE617F707EE
:1001E000E8F41FEF15C082E090E090937E028093C8
:1001F0007D020F5F0093810280917D0290917E02CB
:100200000817190628F0109281024F5F409382026E
:10021000812FDF91CF911F910F910895C90168E25D
:1002200070E00E94C80F6F5F7F4F6E177F07C8F2A4
:1002300083E090E0DACF833081F028F4813099F0C8
:100240008230A9F008958730A9F08830C9F0843051
:10025000B1F4809180008F7D03C0809180008F7702
:1002600080938000089584B58F7784BD089584B508
:100270008F7DFBCF8091B0008F778093B000089581
:100280008091B0008F7DF9CF1F93CF93DF93282FFC
:1002900030E0F901E458FF4F8491F901E255FF4F36
:1002A000D491F901E656FF4FC491CC23A9F0162F43
:1002B00081110E941B01EC2FF0E0EE0FFF1FEE58A2
:1002C000FF4FA591B4918FB7F894EC91111108C02C
:1002D000D095DE23DC938FBFDF91CF911F910895DE
:1002E000DE2BF8CFCF93DF9390E0FC01E255FF4F78
:1002F000249186569F4FFC0184918823D1F090E091
:10030000880F991FFC01E859FF4FA591B491FC019A
:10031000EE58FF4FC591D49161110EC09FB7F8946C
:100320008C91E22FE0958E238C932881E223E88341
:100330009FBFDF91CF9108958FB7F894EC91E22B96
:10034000EC938FBFF6CF3FB7F894809179029091EC
:100350007A02A0917B02B0917C0226B5A89B05C0D1
:100360002F3F19F00196A11DB11D3FBFBA2FA92F34
:10037000982F8827BC01CD01620F711D811D911D31
:1003800042E0660F771F881F991F4A95D1F708959D
:100390008F929F92AF92BF92CF92DF92EF92FF9295
:1003A0004B015C010E94A3016B017C010E94A3012F
:1003B0006C197D098E099F09683E7340810591057E
:1003C000A8F321E0821A9108A108B10888EEC80EAE
:1003D00083E0D81EE11CF11C81149104A104B10436
:1003E00029F7FF90EF90DF90CF90BF90AF909F9054
:1003F0008F900895AF92BF92CF92DF92EF92FF92CB
:100400000F931F93CF93DF936C017B018B01040F3C
:10041000151FEB015E01AE18BF08C017D10759F0D8
:100420006991D601ED91FC910190F081E02DC6011A
:100430000995892B79F7C501DF91CF911F910F9114
:10044000FF90EF90DF90CF90BF90AF900895FC01A8
:10045000538D448D252F30E0842F90E0821B930B29
:10046000541710F0CF96089501970895FC01918DCF
:10047000828D981761F0A28DAE0FBF2FB11D5D96D2
:100480008C91928D9F5F9F73928F90E008958FEF74
:100490009FEF0895FC01918D828D981731F0828D28
:1004A000E80FF11D858D90E008958FEF9FEF08957F
:1004B000FC01918D228D892F90E0805C9F4F821BE3
:1004C00091098F739927089583E892E00E9458025A
:1004D00021E0892B09F420E0822F089580E090E04C
:1004E000892B29F00E94640281110C940000089568
:1004F000FC01A48DA80FB92FB11DA35ABF4F2C9199
:10050000848D90E001968F739927848FA689B7898F
:100510002C93A089B1898C91837080648C93938D86
:10052000848D981306C00288F389E02D80818F7D29
:1005300080830895EF92FF920F931F93CF93DF93E1
:10054000EC0181E0888F9B8D8C8D98131AC0E8890F
:10055000F989808185FF15C09FB7F894EE89FF89DE
:100560006083E889F98980818370806480839FBF7C
:1005700081E090E0DF91CF911F910F91FF90EF907C
:100580000895F62E0B8D10E00F5F1F4F0F7311278C
:10059000E02E8C8D8E110CC00FB607FCFACFE889C7
:1005A000F989808185FFF5CFCE010E947802F1CFD5
:1005B000EB8DEC0FFD2FF11DE35AFF4FF0829FB73B
:1005C000F8940B8FEA89FB8980818062CFCFCF932B
:1005D000DF93EC01888D8823B9F0AA89BB89E8896B
:1005E000F9898C9185FD03C0808186FD0DC00FB611
:1005F00007FCF7CF8C9185FFF2CF808185FFEDCF8F
:10060000CE010E947802E9CFDF91CF910895FC01DD
:100610009B0124513109C90163E470E00E94C80FB5
:10062000E617F70758F0C90168E270E00E94C80FAA
:100630006F5F7F4F81E06E177F0708F480E00895B9
:100640002F923F924F925F926F927F928F929F92E2
:10065000AF92BF92CF92DF92EF92FF920F931F93D0
:10066000CF93DF9300D000D000D0CDB7DEB7382EC7
:100670006D835A013C832B8348012E2C9A012C5EFA
:100680003F4FC90163E470E00E94C80F8B01C901AC
:1006900068E270E00E94C80F9B012F5F3F4F3A83D2
:1006A00029835D81452F50E0435F5F4F80912A048D
:1006B00090912B04480F591F5E834D83412C512C80
:1006C00032014394C12CD12C76013320A1F1ED816C
:1006D000FE81A814B904D9F481816B817C8190E0FA
:1006E0000E940703222001F1CC0CDD1CEE1CFF1C34
:1006F000882311F06894C0F8440C551C661C771CC4
:100700003A948D819E8102969E838D83DECF2081D7
:1007100030E02017310730F081E049815A814217DB
:10072000530700F780E0DECF882331F3C428D528B3
:10073000E628F728E1CFC0920404D0920504E092A5
:100740000604F092070481E026960FB6F894DEBF07
:100750000FBECDBFDF91CF911F910F91FF90EF9012
:10076000DF90CF90BF90AF909F908F907F906F90D1
:100770005F904F903F902F900895EF920F931F93AB
:10078000FC01862F642FEE24E3949785911101C01C
:10079000E12C0385148521853285478150850E948F
:1007A00020031F910F91EF9008950F931F93CF9304
:1007B000DF938C01C0912A04D0912B042E8530E068
:1007C000DC011396ED91FC917496CF0163E470E027
:1007D0000E94C80F26173707A8F0CF0168E270E023
:1007E0000E94C80F6F5F7F4F6217730758F0F801C0
:1007F000658176818F8590E0DF91CF911F910F9178
:100800000C94070380E0DF91CF911F910F91089521
:100810008091F503882319F060E00C9444012D9831
:100820000895882349F08091F503882319F061E049
:100830000C9444012D9A08950C9408044F925F92F1
:100840006F927F928F929F92AF92BF92CF92DF92E0
:10085000EF92FF92CF93DF93CDB7DEB72D970FB610
:10086000F894DEBF0FBECDBF7C010E94A301698357
:100870007A838B839C834B015C011D86B0E0A0E0F2
:100880009701AD0125523109410951092D833E835C
:100890004F8358879701AD0127503109410951090C
:1008A00029873A874B875C87F89461E08091F7034A
:1008B0000E9444018091FA039091FB0382309105DC
:1008C00038F0880F991F880F991F05970197F1F746
:1008D00060E08091F7030E94440178943D853111D6
:1008E00007C08091F60381FF03C081E00E941104DC
:1008F0008091F8039091F903880E991EA11CB11CF8
:10090000F8940E94A3012B013C016B0149815A819B
:10091000C41AD50AF12CE12C8D819E81AF81B88556
:10092000C816D906EA06FB062CF08091F60381FD75
:100930000E94080429853A854B855C85C216D3063A
:10094000E406F506B4F078942D960FB6F894DEBF61
:100950000FBECDBFDF91CF91FF90EF90DF90CF9092
:10096000BF90AF909F908F907F906F905F904F90CF
:10097000089531E03D87481459046A047B0408F463
:10098000C0CF92CFCF92DF92EF92FF928AE190E0B8
:100990009093F9038093F80385E090E09093FB0334
:1009A0008093FA0361E08091F7030E94720180E076
:1009B00093E20E941E040E94A3016B017C0124E0CB
:1009C000C21AD108E108F1080E94A3016C197D093F
:1009D0008E099F09603C784081059105A8F380E36A
:1009E00092E0FF90EF90DF90CF900C941E04CF9395
:1009F000DF93FC0101900020E9F73197AF01481B1C
:100A0000590BBC0183E892E00E94FA01EC0142E03C
:100A100050E062E072E083E892E00E94FA018C0FFD
:100A20009D1FDF91CF9108951F920F920FB60F92E5
:100A300011242F933F938F939F93AF93BF938091F4
:100A4000750290917602A0917702B0917802309170
:100A5000740223E0230F2D3758F50196A11DB11D17
:100A6000209374028093750290937602A09377028C
:100A7000B09378028091790290917A02A0917B02E2
:100A8000B0917C020196A11DB11D809379029093D3
:100A90007A02A0937B02B0937C02BF91AF919F91A9
:100AA0008F913F912F910F900FBE0F901F9018952F
:100AB00026E8230F0296A11DB11DD2CF1F920F92DF
:100AC0000FB60F9211242F933F934F935F936F9321
:100AD0007F938F939F93AF93BF93EF93FF9383E89D
:100AE00092E00E947802FF91EF91BF91AF919F91A8
:100AF0008F917F916F915F914F913F912F910F90C7
:100B00000FBE0F901F9018951F920F920FB60F9265
:100B100011242F938F939F93EF93FF93E091930270
:100B2000F09194028081E0919902F0919A0282FD05
:100B30001BC0908180919C028F5F8F7320919D02DA
:100B4000821741F0E0919C02F0E0ED57FD4F958F48
:100B500080939C02FF91EF919F918F912F910F9025
:100B60000FBE0F901F9018958081F4CF1F920F92A7
:100B70000FB60F9211242F933F934F935F936F9370
:100B80007F938F939F93AF93BF93CF93EF93FF93F5
:100B9000E0912203F0912303C08180912403C823B4
:100BA0008091250390912603019649F080912503B9
:100BB00090912603019690932603809325038091BC
:100BC000200381111DC0C11176C080912503909131
:100BD0002603813A910578F010922903809125032C
:100BE0009091260390932C0380932B0381E08093B4
:100BF0002A038093200310922603109225035BC0E2
:100C000080912003813099F4CC2309F454C0809161
:100C1000250390912603E0912A0391E09E0F909383
:100C20002A03F0E0E05EFC4F858782E0E2CF80910E
:100C30002003823009F05AC0C11120C0E0912A037C
:100C4000E83C70F081E08093290383E080932003E7
:100C5000E0912703F0912803309769F20995CBCFF3
:100C6000809125039091260391E09E0F90932A0393
:100C7000F0E0E05EFC4F858781E0BBCF80912503EB
:100C800090912603813A9105B0F080912B039091C9
:100C90002C03909329048093280480912A03809345
:100CA000270483E080932003E0912703F091280339
:100CB000309709F009958091F60380FF05C081E027
:100CC000C11180E00E941104FF91EF91CF91BF917B
:100CD000AF919F918F917F916F915F914F913F91D4
:100CE0002F910F900FBE0F901F90189580912003A9
:100CF000833009F7C111DFCF7ECFDF92EF92FF92F1
:100D00000F931F93CF93DF93EC01D62E8A017901C5
:100D1000F0E090E080E030E0E0E0DE01AE0FB11DF9
:100D20002C91FF5F222339F0320F2E9F800D911DF1
:100D300011241C92F0E03323B9F0DE1611F0F230EA
:100D400098F0232F2695820F911D632F70E00E944B
:100D5000C80FDE01A60FB11D3C93D8013C913111A3
:100D60000FC06C9390E080E0EF5FDE16B0F681E09C
:100D7000DF91CF911F910F91FF90EF90DF90089539
:100D8000D7013C91332369F380E0F2CFE3E8F2E04E
:100D90001382128288EE93E0A0E0B0E08483958312
:100DA000A683B78384EF91E09183808385EC90E004
:100DB0009587848784EC90E09787868780EC90E025
:100DC000918B808B81EC90E0938B828B82EC90E016
:100DD000958B848B86EC90E0978B868B118E128E90
:100DE000138E148EE0E2F3E0F0932B04E0932A04D8
:100DF000118281E0848389E290E09383828350981A
:100E00001092F5031092F7030895CF93DF93CDB7B7
:100E1000DEB7E7970FB6F894DEBF0FBECDBF78946C
:100E200084B5826084BD84B5816084BD85B58260EF
:100E300085BD85B5816085BD80916E0081608093A0
:100E40006E00109281008091810082608093810009
:100E50008091810081608093810080918000816019
:100E6000809380008091B10084608093B100809174
:100E7000B00081608093B00080917A00846080939C
:100E80007A0080917A00826080937A0080917A0063
:100E9000816080937A0080917A00806880937A00E4
:100EA0001092C100E0919302F091940282E080835D
:100EB000E0918F02F09190021082E0919102F09106
:100EC00092029FEC908310929B02E0919702F09126
:100ED000980296E09083E0919502F09196029081BD
:100EE00090619083E0919502F091960290819860D4
:100EF0009083E0919502F0919602908190689083A2
:100F0000E0919502F091960290819F7D908398E008
:100F10009093210391E09093240323E230E03093F7
:100F200023032093220320981092F5038093B000AE
:100F30008093B10084E68093B3008093B400109254
:100F4000B20080912003833011F41092200384E0DA
:100F50008093700061E08DE00E94720161E08CE09E
:100F60000E9472019E012F5F3F4F39018091200343
:100F7000833009F0CEC780912903882309F458C033
:100F800080E4809326041092FD031092FC031092DB
:100F90000104109200041092FF031092FE031092BD
:100FA0000404109205041092060410920704109293
:100FB0002504109224048091260486FD5AC1909144
:100FC0002704892F8F7B843009F0C0C0E0912A0468
:100FD000F0912B04868586588C3508F0B7C087853C
:100FE000943009F04CC08152883108F0AFC080893C
:100FF0008850883008F0AAC081E080932604809150
:101000002E0490912F049093FF038093FE03809110
:1010100032049091330490930104809300048091F2
:101020002C0490912D049093FD038093FC0321C127
:10103000109226048091FC039091FD0390932D045F
:1010400080932C048091000490910104B0E0A0E012
:101050008093320490933304A0933404B093350406
:101060008091FE039091FF03B0E0A0E080932E04F6
:1010700090932F04A0933004B093310484CF825412
:101080008F3208F063C043E060E28CED91E00E9493
:10109000BD03882309F45AC02091040490910504EB
:1010A0006091060480910704462F50E0509301049C
:1010B00040930004422F592F4E3E37E8530719F54D
:1010C00023E030E03093FD032093FC0390E0909305
:1010D000FF038093FE0380E290E0909325048093C9
:1010E00024048AE795E00E948C008091260480FF0A
:1010F000C0C029E030E03093FD032093FC03806200
:1011000080932604B6C09095291310C030E0309328
:10111000FF032093FE03982F909569130CC088E07D
:1011200090E09093FD038093FC03D5CF5093FF0391
:101130004093FE03F0CF2AE030E03093FD0320938C
:10114000FC036093000480930104C5CF80912704C1
:10115000843609F0AAC088EC91E00E94D503882368
:1011600009F4A3C043E060E188EC91E00E94BD0374
:10117000882309F49AC0F09004040F2D10910504FF
:10118000BBE0CB2ED12C023080E21807F9F0AEE0A4
:10119000CA2ED12C0A3A9AE51907C1F0FDE0CF2EEC
:1011A000D12C0435A2E31A0789F0EFE0CE2ED12C22
:1011B0000330B1E01B0751F080E1C82ED12C03327F
:1011C000EBEC1E0719F07CE0C72ED12C43E260E265
:1011D00088EC91E00E94BD03882309F466C0F126E3
:1011E0008091040490910504A0910604B091070435
:1011F0009C0164E0369527956A95E1F73093FF03EB
:101200002093FE032A2F30E0309301042093000442
:10121000382F3A2739272F2D22952F702F252F7001
:10122000482F4F70241719F024E020932604FCE087
:10123000CF16D10449F4209126042061209326047E
:1012400010930304009302043B1729F080912604B5
:1012500084608093260480E390E09093250480933B
:101260002404D092FD03C092FC038AE397E00E941D
:101270008C0064E670E080E090E00E94C8018091FC
:101280002003833011F41092200380910004909188
:1012900001048D30910509F449C608F001C60C9788
:1012A00009F449C68EE592E043C680912704803256
:1012B00009F06EC041E06FE084EB91E00E94BD0355
:1012C000882309F465C0E0912A04F0912B0484A5D9
:1012D0008450853008F05CC080910404909105042E
:1012E000A0910604B09107049C012F71332730931D
:1012F000FF032093FE0355E0B695A7959795879534
:101300005A95D1F7292F2370AC015527509301042A
:1013100040930004409128045091290445365440DC
:1013200080F5309136043F5F30933604323018F048
:1013300031E03093260490FF14C030912604432FEF
:1013400042604093260440913204509133048095CA
:10135000841719F0366030932604409300045093AC
:1013600001042150223088F487E190E09093FD033E
:101370008093FC038FE090E09093250480932404F5
:1013800078CF10923604223079F384E090E0EECFEB
:1013900080E091E00E94D503882309F448C0809141
:1013A00027048A3129F08A3219F0803209F03FC0CF
:1013B00090E0BC016150710977FDBC01759567959E
:1013C00043E080E091E00E94BD03882381F1809199
:1013D000040490910504A0910604B09107049C01B7
:1013E0002F773327309301042093000437E0B6951C
:1013F000A795979587953A95D1F79093FF0380939A
:10140000FE032091270430E0C901019797FDC9012F
:1014100095958795909325048093240488E190E026
:101420009093FD038093FC0380EE91E020CF81E058
:101430008093820289E793E09093800280937F02F9
:10144000109281020E949900813009F060C0812CC5
:10145000912C540110E09091270480918202891709
:10146000E0F40E949900082F0E94990001110BC01E
:10147000813009F04CC0880C991CAA1CBB1C6894D4
:1014800080F81F5FE8CF013009F041C081113FC0F3
:10149000880C991CAA1CBB1CF4CF812F90E0909360
:1014A0002504809324048092040490920504A09261
:1014B0000604B0920704882D8F7390E09093010486
:1014C000809300049401B6E036952795BA95E1F72C
:1014D0002F7133273093FF032093FE0394012227BB
:1014E0003071232B31F4805C9F4F909301048093E3
:1014F000000480E893FC88E88093260481E190E072
:101500009093FD038093FC038FEC99E0B0CEE091C3
:101510002A04F0912B04868588528D3108F041C051
:1015200087858C508B30E8F583E0809382028CEBCA
:1015300091E09093800280937F02109281020E943A
:101540009900813071F50E94990081112AC0812C87
:10155000912C540110E09091270480918202891708
:1015600008F079C00E949900F82E1330B1F00E9463
:101570009900082F133021F40E949900081311C01C
:1015800081E0F8125EC001110CC0880C991CAA1CE5
:10159000BB1C689480F81F5FDECF0E949900F8168C
:1015A00031F3909127049C3311F09430B1F4E09121
:1015B0002A04F0912B048685282F30E02638310547
:1015C00060F0233E310508F493C08E5868EB7BE051
:1015D00007E010E0823608F48FC080912704823241
:1015E00009F4EDC0843209F016C188E291E00E944E
:1015F000D503882309F40FC143E060E188E291E05C
:101600000E94BD03882309F406C1809104049091CF
:101610000504A0910604B0910704492F5A2F6B2F9F
:101620007727509301044093000499279093FF0378
:101630008093FE0380E190E090932504809324043E
:10164000E7C0F110AECF013009F0ABCF880C991C88
:10165000AA1CBB1CA0CF812F90E0909325048093FF
:1016600024048092040490920504A0920604B0928F
:101670000704282D30E0892D90E0133200F540E872
:101680004093260430930104209300049093FF03B9
:101690008093FE03A0FE03C088E8809326041531E2
:1016A00028F08091260480618093260482E190E0F6
:1016B0009093FD038093FC0383E79AE0D8CD40E943
:1016C0004093260430930104209300049093FF0379
:1016D0008093FE03C5019F739093030480930204DB
:1016E000B7FE03C088E98093260483E190E0E0CF51
:1016F00068E670E106E010E08785943059F48D517A
:10170000863108F06ACF80898750883008F065CF2D
:1017100081E873CC90E00E940703882309F45DCF31
:1017200043E06CE184E191E00E94BD03882309F469
:1017300054CF80E88093260440910404509105041E
:101740006091060470910704DB01CA0124E0B6959C
:10175000A795979587952A95D1F79C0190930104B9
:1017600080930004DB01CA01E4E1B695A795979543
:101770008795EA95D1F79093FF038093FE0384E069
:1017800090E0E0E0F22FFF70EF0FF4E03695279540
:10179000FA95E1F70197B1F74E274F705527662765
:1017A0007727452B462B472B19F084E88093260496
:1017B0001093FD030093FC038CE190E0DDCD80915C
:1017C0002804909129048C3E9C4508F052CDE0916C
:1017D0002A04F0912B0486858850873008F049CD83
:1017E00086A58850873008F044CD81E08093260498
:1017F00080912E0490912F049093FF038093FE0319
:1018000080913204909133049093010480930004FA
:1018100085E090E008CC10912704812F8F7D8434DF
:1018200019F0163009F081C08CE391E00E94D503D5
:10183000882309F47AC01630B1F481E2809326043B
:1018400080912E0490912F049093FF038093FE03C8
:1018500080913204909133049093010480930004AA
:1018600085E190E0E0CB43E060E28CE391E00E9410
:10187000BD03882309F459C0809104041091060423
:1018800000910704909105048093FE039093FF0359
:1018900090912704943659F543E460E18CE391E09C
:1018A0000E94BD03882309F440C0809104049091F4
:1018B00005040095101731F09095891719F094E000
:1018C00090932604982F812F909301048093000415
:1018D00080E390E0909325048093240486E190E0D7
:1018E0009093FD038093FC038EEB9AE0C0CC902F85
:1018F0009095191314C0212F30E0309301042093E8
:10190000000490E09093FF038093FE0380E290E058
:10191000909325048093240484E190E0E1CFC801F2
:101920009093000480930104F1CF809127048432C6
:1019300079F580E591E00E94D503882349F143E0E1
:1019400060E180E591E00E94BD03882309F11091D8
:101950000404809105048095181719F084E08093A1
:1019600026048DE692E00E948C00812F90E09093F7
:101970000104809300041092FF031092FE0380E1A3
:1019800090E090932504809324048EE190E04BCB6B
:10199000809127048434D1F484E691E00E94D50339
:1019A0008823A1F043E060E284E691E00E94BD0359
:1019B000882361F080E88093260480E290E0909391
:1019C0002504809324048DE190E02DCB88E791E0FD
:1019D0000E94D50390912704882309F455C09432BE
:1019E00009F052C043E060E188E791E00E94BD0346
:1019F000882309F449C0E0912A04F0912B0480A9BE
:101A00008250843008F040C080E880932604909192
:101A1000040480910504292F382F482F42954F70D8
:101A20008F7054E0369527955A95E1F72F70392F2E
:101A30003F709FE0942798279227391719F094E870
:101A4000909326046091280470912904683F7141A5
:101A500028F4909126049260909326044093FE030C
:101A60001092FF03E0E18E9FC0011124822B90931E
:101A700001048093000480E190E09093250480931A
:101A800024048BE190E0CFCA8CE891E00E94D5035A
:101A900090912704882369F1943259F543E060E17D
:101AA0008CE891E00E94BD03882319F1E0912A049B
:101AB000F0912B0480A988508730D8F480910404D9
:101AC0009091050498279F3FA1F490E09093010422
:101AD0008093000480E190E0909325048093240497
:101AE0008AE190E09093FD038093FC0388ED94E0FD
:101AF000BECB80912704803709F057C041E068E0F1
:101B000080EA91E00E94BD03882309F44EC08091D1
:101B1000040490910504A0910604B0910704892B58
:101B20008A2B8B2B09F041C041E16FE180EA91E003
:101B30000E94BD038823C9F180900404909005049D
:101B4000A0900604B09007044FE461E180EA91E0C0
:101B50000E94BD03882349F19091050480910604F9
:101B60008927982789279093010480930004809205
:101B7000040490920504A0920604B0920704909287
:101B8000FF038092FE03B0920304A09202048CE152
:101B900090E09093FD038093FC0388E390E09093A2
:101BA00025048093240480E8ABCA80912704823105
:101BB00008F41EC192E3D3011D929A95E9F7409172
:101BC0002A0450912B0473E060E08250990B272F78
:101BD00030E02817390794F4240F351FF9012585C3
:101BE000223308F005C1F301E20FF11D30813F5FA0
:101BF0003083621708F4622F7E5FE9CF1EAA1DAA08
:101C00009E012B5C3F4FAE014A5C5F4FC3010E94B7
:101C10007D06882309F4ECC082E3D3011D928A95E6
:101C2000E9F7209127042250330B40912A04509168
:101C30002B0474E060E0872F90E08217930794F400
:101C4000840F951FFC018585823308F0D1C0F30114
:101C5000E80FF11D90819F5F9083681708F4682F4B
:101C60007E5FE9CF1CAA1BAA9E012D5C3F4FAE01EF
:101C70004C5C5F4FC3010E947D06882309F4B8C005
:101C8000809127048695FF24FA94F80ECBA8CC20E7
:101C900019F04EEFF42EF80E2F2D30E0309325047E
:101CA00020932404C901019797FD4F9635E095953F
:101CB00087953A95E1F78FAB8DA8811003C0CC20B2
:101CC00009F496C04CA882E3489E20011124AEA8D6
:101CD000A89E50011124889E40011124C89E6001D5
:101CE000112423E0222E312C8F2DF0E2FF1508F471
:101CF00080E29BA9992309F45AC022E030E0309396
:101D0000FD032093FC03E12C85019601A501622DC2
:101D10000E942003882309F46BC0B4E03B9EF001CD
:101D20001124EC5EFB4F8091040490910504A09176
:101D30000604B091070480839183A283B383E0E417
:101D40002E0EF0EEFF0E33942FA9231568F680EDCA
:101D500097E00E948C00E0912A04F0912B042685E4
:101D600092E3299F900111243093090420930804E1
:101D70008785899FC001112490930B0480930A04E6
:101D8000B0921104A09210045092130440921204D5
:101D90008114910421F1C114D104A1F490920D0495
:101DA00080920C0450920F0440920E0462CAA1E08B
:101DB000B0E0B093FD03A093FC03E12C85019201F8
:101DC000A401A5CFD0920F04C0920E04B0920D04CE
:101DD000A0920C0490921104809210044ACAB0920E
:101DE0000D04A0920C04D0920F04C0920E0441CABC
:101DF000E0912704E63008F43CCAC0902A04D09051
:101E00002B0411E025EC3DE94CE151E8F0E00AE05B
:101E1000612F70E0CB0102968E179F0774F58C0D31
:101E20009D1DDC011D968C916C0D7D1DDB011D96A9
:101E30006C91809F5001112498E0699FD00111247A
:101E4000F12CAA16BB0670F0609FB0011124A8E027
:101E50008A9FC0011124FF24F3946817790710F4B6
:101E600092E0F92E63E971E080E091E00E949E0F1C
:101E70009B01AC012F251F5FCBCF2093040430932F
:101E80000504409306045093070480E290E0909389
:101E90002504809324041092FD031092FC03E9C9E9
:101EA00086319105A1F0499709F0FCC989E192E0DA
:101EB0000E94F70461E08CE00E9444016AEF70E048
:101EC00080E090E00E94C80160E08CE020C085E0E6
:101ED00092E00E94F704E9E8F0E08491EBEBF0E097
:101EE0001491E7EAF0E00491002379F081110E9457
:101EF0001B01E02FF0E0EE0FFF1FE057FF4FA59111
:101F0000B4918C91182360E009F461E08DE00E94A7
:101F1000440180E090E0892B09F428C80E94640203
:101F2000882309F423C80E94000020C88DE292E0B3
:101F30000E94F704EECF81E492E0FACFDB018F93A9
:101F40009F930E94AE0FBF91AF91A29F800D911DF4
:101F5000A39F900DB29F900D112408950E94B90F78
:101F6000A59F900DB49F900DA49F800D911D1124ED
:101F70000895A29FB001B39FC001A39F700D811D62
:101F80001124911DB29F700D811D1124911D089582
:101F9000AA1BBB1B51E107C0AA1FBB1FA617B7078F
:101FA00010F0A61BB70B881F991F5A95A9F78095AB
:101FB0009095BC01CD010895EE0FFF1F0590F4919F
:101FC000E02D0994F894FFCF18002860095802B05A
:101FD00004580258025802002D000000060026286E
:101FE000236810F4012C06F4012602806E00C2045E
:101FF000050026E02070100E022A060E020E0200D6
:10200000410000001400268011801130029006303B
:10201000023002006E0000001E002638081C040E6C
:10202000022A060E020E0200320000001D002622C7
:102030000B220BEE026608EE02EE02806E0000003C
:102040001B00269E0002049E0029029E000701003C
:102050006E0000001A0026F603BC050802BC050845
:1020600002D401004B0000001C00261F015D033E4E
:10207000023E021F015D03A06E0000000400260462
:10208000010C0304011C0704010C03006E00000096
:102090000C0025800DC006B0011005B001B0010094
:1020A00082000000080026002380113002900630D4
:1020B000023002006E00C204000000009A02FA0121
:1020C0002702E702580236024A020D0A00507265E2
:1020D00073736564206F6E20627574746F6E203147
:1020E0000050726573736564206F6E20627574743E
:1020F0006F6E20320050726573736564206F6E20BE
:10210000627574746F6E203300507265737365640A
:10211000206F6E20627574746F6E20706C61792F01
:10212000706175736500427574746F6E206E6F74A4
:0C213000207265636F676E697A65640059
:107E0000112484B714BE81FFF0D085E080938100F7
:107E100082E08093C00088E18093C10086E0809377
:107E2000C20080E18093C4008EE0C9D0259A86E02C
:107E300020E33CEF91E0309385002093840096BBD3
:107E4000B09BFECF1D9AA8958150A9F7CC24DD24C4
:107E500088248394B5E0AB2EA1E19A2EF3E0BF2EE7
:107E6000A2D0813461F49FD0082FAFD0023811F036
:107E7000013811F484E001C083E08DD089C08234E0
:107E800011F484E103C0853419F485E0A6D080C0E4
:107E9000853579F488D0E82EFF2485D0082F10E0AE
:107EA000102F00270E291F29000F111F8ED06801E7
:107EB0006FC0863521F484E090D080E0DECF843638
:107EC00009F040C070D06FD0082F6DD080E0C81688
:107ED00080E7D80618F4F601B7BEE895C0E0D1E017
:107EE00062D089930C17E1F7F0E0CF16F0E7DF06D8
:107EF00018F0F601B7BEE89568D007B600FCFDCFD4
:107F0000A601A0E0B1E02C9130E011968C91119780
:107F100090E0982F8827822B932B1296FA010C0160
:107F200087BEE89511244E5F5F4FF1E0A038BF0790
:107F300051F7F601A7BEE89507B600FCFDCF97BE46
:107F4000E89526C08437B1F42ED02DD0F82E2BD052
:107F50003CD0F601EF2C8F010F5F1F4F84911BD097
:107F6000EA94F801C1F70894C11CD11CFA94CF0C13
:107F7000D11C0EC0853739F428D08EE10CD085E9AC
:107F80000AD08FE07ACF813511F488E018D01DD067
:107F900080E101D065CF982F8091C00085FFFCCF94
:107FA0009093C60008958091C00087FFFCCF809118
:107FB000C00084FD01C0A8958091C6000895E0E648
:107FC000F0E098E1908380830895EDDF803219F02E
:107FD00088E0F5DFFFCF84E1DECF1F93182FE3DFCA
:107FE0001150E9F7F2DF1F91089580E0E8DFEE27F6
:047FF000FF270994CA
:027FFE00040479
:00000001FF
